{
  "contractName": "Staking_Dapp",
  "abi": [
    {
      "inputs": [
        {
          "internalType": "contract Dummy_Token",
          "name": "_dummyToken",
          "type": "address"
        },
        {
          "internalType": "contract Tether_Token",
          "name": "_tetherToken",
          "type": "address"
        }
      ],
      "stateMutability": "nonpayable",
      "type": "constructor"
    },
    {
      "inputs": [],
      "name": "dummy_token",
      "outputs": [
        {
          "internalType": "contract Dummy_Token",
          "name": "",
          "type": "address"
        }
      ],
      "stateMutability": "view",
      "type": "function"
    },
    {
      "inputs": [
        {
          "internalType": "address",
          "name": "",
          "type": "address"
        }
      ],
      "name": "hasstaked",
      "outputs": [
        {
          "internalType": "bool",
          "name": "",
          "type": "bool"
        }
      ],
      "stateMutability": "view",
      "type": "function"
    },
    {
      "inputs": [
        {
          "internalType": "address",
          "name": "",
          "type": "address"
        }
      ],
      "name": "isstaking",
      "outputs": [
        {
          "internalType": "bool",
          "name": "",
          "type": "bool"
        }
      ],
      "stateMutability": "view",
      "type": "function"
    },
    {
      "inputs": [],
      "name": "name",
      "outputs": [
        {
          "internalType": "string",
          "name": "",
          "type": "string"
        }
      ],
      "stateMutability": "view",
      "type": "function"
    },
    {
      "inputs": [],
      "name": "owner",
      "outputs": [
        {
          "internalType": "address",
          "name": "",
          "type": "address"
        }
      ],
      "stateMutability": "view",
      "type": "function"
    },
    {
      "inputs": [
        {
          "internalType": "uint256",
          "name": "",
          "type": "uint256"
        }
      ],
      "name": "stakers",
      "outputs": [
        {
          "internalType": "address",
          "name": "",
          "type": "address"
        }
      ],
      "stateMutability": "view",
      "type": "function"
    },
    {
      "inputs": [
        {
          "internalType": "address",
          "name": "",
          "type": "address"
        }
      ],
      "name": "stakingBalance",
      "outputs": [
        {
          "internalType": "uint256",
          "name": "",
          "type": "uint256"
        }
      ],
      "stateMutability": "view",
      "type": "function"
    },
    {
      "inputs": [],
      "name": "tether_token",
      "outputs": [
        {
          "internalType": "contract Tether_Token",
          "name": "",
          "type": "address"
        }
      ],
      "stateMutability": "view",
      "type": "function"
    },
    {
      "inputs": [
        {
          "internalType": "uint256",
          "name": "_amount",
          "type": "uint256"
        }
      ],
      "name": "stakeTokens",
      "outputs": [],
      "stateMutability": "nonpayable",
      "type": "function"
    },
    {
      "inputs": [],
      "name": "unstakeTokens",
      "outputs": [],
      "stateMutability": "nonpayable",
      "type": "function"
    },
    {
      "inputs": [],
      "name": "issuedummy",
      "outputs": [],
      "stateMutability": "nonpayable",
      "type": "function"
    }
  ],
  "bytecode": "0x60806040526040518060400160405280600c81526020017f5374616b696e6720446170700000000000000000000000000000000000000000815250600090805190602001906200005192919062000150565b503480156200005f57600080fd5b506040516200148c3803806200148c8339818101604052810190620000859190620002c3565b81600260006101000a81548173ffffffffffffffffffffffffffffffffffffffff021916908373ffffffffffffffffffffffffffffffffffffffff16021790555080600360006101000a81548173ffffffffffffffffffffffffffffffffffffffff021916908373ffffffffffffffffffffffffffffffffffffffff16021790555033600160006101000a81548173ffffffffffffffffffffffffffffffffffffffff021916908373ffffffffffffffffffffffffffffffffffffffff16021790555050506200036f565b8280546200015e9062000339565b90600052602060002090601f016020900481019282620001825760008555620001ce565b82601f106200019d57805160ff1916838001178555620001ce565b82800160010185558215620001ce579182015b82811115620001cd578251825591602001919060010190620001b0565b5b509050620001dd9190620001e1565b5090565b5b80821115620001fc576000816000905550600101620001e2565b5090565b600080fd5b600073ffffffffffffffffffffffffffffffffffffffff82169050919050565b6000620002328262000205565b9050919050565b6000620002468262000225565b9050919050565b620002588162000239565b81146200026457600080fd5b50565b60008151905062000278816200024d565b92915050565b60006200028b8262000225565b9050919050565b6200029d816200027e565b8114620002a957600080fd5b50565b600081519050620002bd8162000292565b92915050565b60008060408385031215620002dd57620002dc62000200565b5b6000620002ed8582860162000267565b92505060206200030085828601620002ac565b9150509250929050565b7f4e487b7100000000000000000000000000000000000000000000000000000000600052602260045260246000fd5b600060028204905060018216806200035257607f821691505b602082108114156200036957620003686200030a565b5b50919050565b61110d806200037f6000396000f3fe608060405234801561001057600080fd5b50600436106100a95760003560e01c80638da5cb5b116100715780638da5cb5b1461014057806390332cd71461015e578063a5ce413b1461018e578063af3fb4b114610198578063f9075fc6146101c8578063fd5e6dd1146101e6576100a9565b806306fdde03146100ae5780633d9f37cc146100cc57806345bc78ab146100d65780637547c7a31461010657806389c95e9814610122575b600080fd5b6100b6610216565b6040516100c39190610b01565b60405180910390f35b6100d46102a4565b005b6100f060048036038101906100eb9190610b86565b61049d565b6040516100fd9190610bcc565b60405180910390f35b610120600480360381019061011b9190610c13565b6104b5565b005b61012a6107a0565b6040516101379190610c9f565b60405180910390f35b6101486107c6565b6040516101559190610cc9565b60405180910390f35b61017860048036038101906101739190610b86565b6107ec565b6040516101859190610cff565b60405180910390f35b61019661080c565b005b6101b260048036038101906101ad9190610b86565b6109e3565b6040516101bf9190610cff565b60405180910390f35b6101d0610a03565b6040516101dd9190610d3b565b60405180910390f35b61020060048036038101906101fb9190610c13565b610a29565b60405161020d9190610cc9565b60405180910390f35b6000805461022390610d85565b80601f016020809104026020016040519081016040528092919081815260200182805461024f90610d85565b801561029c5780601f106102715761010080835404028352916020019161029c565b820191906000526020600020905b81548152906001019060200180831161027f57829003601f168201915b505050505081565b600160009054906101000a900473ffffffffffffffffffffffffffffffffffffffff1673ffffffffffffffffffffffffffffffffffffffff163373ffffffffffffffffffffffffffffffffffffffff1614610334576040517f08c379a000000000000000000000000000000000000000000000000000000000815260040161032b90610e29565b60405180910390fd5b60005b60048054905081101561049a5760006004828154811061035a57610359610e49565b5b9060005260206000200160009054906101000a900473ffffffffffffffffffffffffffffffffffffffff1690506000600560008373ffffffffffffffffffffffffffffffffffffffff1673ffffffffffffffffffffffffffffffffffffffff168152602001908152602001600020549050600081111561048557600260009054906101000a900473ffffffffffffffffffffffffffffffffffffffff1673ffffffffffffffffffffffffffffffffffffffff1663a9059cbb83836040518363ffffffff1660e01b8152600401610431929190610e78565b602060405180830381600087803b15801561044b57600080fd5b505af115801561045f573d6000803e3d6000fd5b505050506040513d601f19601f820116820180604052508101906104839190610ecd565b505b5050808061049290610f29565b915050610337565b50565b60056020528060005260406000206000915090505481565b600081116104f8576040517f08c379a00000000000000000000000000000000000000000000000000000000081526004016104ef90610fbe565b60405180910390fd5b600360009054906101000a900473ffffffffffffffffffffffffffffffffffffffff1673ffffffffffffffffffffffffffffffffffffffff1663f990a3633330846040518463ffffffff1660e01b815260040161055793929190610fde565b602060405180830381600087803b15801561057157600080fd5b505af1158015610585573d6000803e3d6000fd5b505050506040513d601f19601f820116820180604052508101906105a99190610ecd565b5080600560003373ffffffffffffffffffffffffffffffffffffffff1673ffffffffffffffffffffffffffffffffffffffff168152602001908152602001600020546105f59190611015565b600560003373ffffffffffffffffffffffffffffffffffffffff1673ffffffffffffffffffffffffffffffffffffffff16815260200190815260200160002081905550600660003373ffffffffffffffffffffffffffffffffffffffff1673ffffffffffffffffffffffffffffffffffffffff16815260200190815260200160002060009054906101000a900460ff166106ed576004339080600181540180825580915050600190039060005260206000200160009091909190916101000a81548173ffffffffffffffffffffffffffffffffffffffff021916908373ffffffffffffffffffffffffffffffffffffffff1602179055505b6001600760003373ffffffffffffffffffffffffffffffffffffffff1673ffffffffffffffffffffffffffffffffffffffff16815260200190815260200160002060006101000a81548160ff0219169083151502179055506001600660003373ffffffffffffffffffffffffffffffffffffffff1673ffffffffffffffffffffffffffffffffffffffff16815260200190815260200160002060006101000a81548160ff02191690831515021790555050565b600360009054906101000a900473ffffffffffffffffffffffffffffffffffffffff1681565b600160009054906101000a900473ffffffffffffffffffffffffffffffffffffffff1681565b60066020528060005260406000206000915054906101000a900460ff1681565b6000600560003373ffffffffffffffffffffffffffffffffffffffff1673ffffffffffffffffffffffffffffffffffffffff16815260200190815260200160002054905060008111610893576040517f08c379a000000000000000000000000000000000000000000000000000000000815260040161088a906110b7565b60405180910390fd5b600360009054906101000a900473ffffffffffffffffffffffffffffffffffffffff1673ffffffffffffffffffffffffffffffffffffffff1663a9059cbb33836040518363ffffffff1660e01b81526004016108f0929190610e78565b602060405180830381600087803b15801561090a57600080fd5b505af115801561091e573d6000803e3d6000fd5b505050506040513d601f19601f820116820180604052508101906109429190610ecd565b506000600560003373ffffffffffffffffffffffffffffffffffffffff1673ffffffffffffffffffffffffffffffffffffffff168152602001908152602001600020819055506000600760003373ffffffffffffffffffffffffffffffffffffffff1673ffffffffffffffffffffffffffffffffffffffff16815260200190815260200160002060006101000a81548160ff02191690831515021790555050565b60076020528060005260406000206000915054906101000a900460ff1681565b600260009054906101000a900473ffffffffffffffffffffffffffffffffffffffff1681565b60048181548110610a3957600080fd5b906000526020600020016000915054906101000a900473ffffffffffffffffffffffffffffffffffffffff1681565b600081519050919050565b600082825260208201905092915050565b60005b83811015610aa2578082015181840152602081019050610a87565b83811115610ab1576000848401525b50505050565b6000601f19601f8301169050919050565b6000610ad382610a68565b610add8185610a73565b9350610aed818560208601610a84565b610af681610ab7565b840191505092915050565b60006020820190508181036000830152610b1b8184610ac8565b905092915050565b600080fd5b600073ffffffffffffffffffffffffffffffffffffffff82169050919050565b6000610b5382610b28565b9050919050565b610b6381610b48565b8114610b6e57600080fd5b50565b600081359050610b8081610b5a565b92915050565b600060208284031215610b9c57610b9b610b23565b5b6000610baa84828501610b71565b91505092915050565b6000819050919050565b610bc681610bb3565b82525050565b6000602082019050610be16000830184610bbd565b92915050565b610bf081610bb3565b8114610bfb57600080fd5b50565b600081359050610c0d81610be7565b92915050565b600060208284031215610c2957610c28610b23565b5b6000610c3784828501610bfe565b91505092915050565b6000819050919050565b6000610c65610c60610c5b84610b28565b610c40565b610b28565b9050919050565b6000610c7782610c4a565b9050919050565b6000610c8982610c6c565b9050919050565b610c9981610c7e565b82525050565b6000602082019050610cb46000830184610c90565b92915050565b610cc381610b48565b82525050565b6000602082019050610cde6000830184610cba565b92915050565b60008115159050919050565b610cf981610ce4565b82525050565b6000602082019050610d146000830184610cf0565b92915050565b6000610d2582610c6c565b9050919050565b610d3581610d1a565b82525050565b6000602082019050610d506000830184610d2c565b92915050565b7f4e487b7100000000000000000000000000000000000000000000000000000000600052602260045260246000fd5b60006002820490506001821680610d9d57607f821691505b60208210811415610db157610db0610d56565b5b50919050565b7f63616c6c6572206d75737420626520746865206f776e657220666f722074686960008201527f732066756e6374696f6e00000000000000000000000000000000000000000000602082015250565b6000610e13602a83610a73565b9150610e1e82610db7565b604082019050919050565b60006020820190508181036000830152610e4281610e06565b9050919050565b7f4e487b7100000000000000000000000000000000000000000000000000000000600052603260045260246000fd5b6000604082019050610e8d6000830185610cba565b610e9a6020830184610bbd565b9392505050565b610eaa81610ce4565b8114610eb557600080fd5b50565b600081519050610ec781610ea1565b92915050565b600060208284031215610ee357610ee2610b23565b5b6000610ef184828501610eb8565b91505092915050565b7f4e487b7100000000000000000000000000000000000000000000000000000000600052601160045260246000fd5b6000610f3482610bb3565b91507fffffffffffffffffffffffffffffffffffffffffffffffffffffffffffffffff821415610f6757610f66610efa565b5b600182019050919050565b7f616d6f756e742063616e206e6f74206265207a65726f00000000000000000000600082015250565b6000610fa8601683610a73565b9150610fb382610f72565b602082019050919050565b60006020820190508181036000830152610fd781610f9b565b9050919050565b6000606082019050610ff36000830186610cba565b6110006020830185610cba565b61100d6040830184610bbd565b949350505050565b600061102082610bb3565b915061102b83610bb3565b9250827fffffffffffffffffffffffffffffffffffffffffffffffffffffffffffffffff038211156110605761105f610efa565b5b828201905092915050565b7f7374616b696e672062616c616e6365206973207a65726f000000000000000000600082015250565b60006110a1601783610a73565b91506110ac8261106b565b602082019050919050565b600060208201905081810360008301526110d081611094565b905091905056fea2646970667358221220da841469c3c564ccdb1105634a645b1c42df7b6eb566545ff327e467008833e764736f6c63430008090033",
  "immutableReferences": {},
  "source": "// SPDX-License-Identifier: MIT\r\npragma solidity >=0.4.22 <0.9.0;\r\n\r\nimport \"./Dummy_Token.sol\";\r\nimport \"./Tether_Token.sol\";\r\n\r\ncontract Staking_Dapp{\r\n\r\n    string public name = \"Staking Dapp\";\r\n    address public owner;\r\n    Dummy_Token public dummy_token;\r\n    Tether_Token public tether_token;\r\n\r\n    address[] public stakers;\r\n    mapping(address => uint) public stakingBalance;\r\n    mapping(address => bool) public hasstaked;\r\n    mapping(address => bool) public isstaking;\r\n\r\n    constructor(Dummy_Token _dummyToken, Tether_Token _tetherToken){\r\n\r\n        dummy_token = _dummyToken;\r\n        tether_token = _tetherToken;\r\n        owner = msg.sender;\r\n\r\n    }\r\n\r\n    function stakeTokens(uint _amount) public{\r\n\r\n        require(_amount > 0, \"amount can not be zero\"); //if amount is zero or not\r\n\r\n        tether_token.trnasferfrom(msg.sender, address(this), _amount); // transfered tether to contract address\r\n\r\n        stakingBalance[msg.sender] = stakingBalance[msg.sender] + _amount; // updated the staking balace of user\r\n\r\n        if(!hasstaked[msg.sender]){\r\n            stakers.push(msg.sender);       //added user to the stakers array \r\n        }\r\n\r\n        isstaking[msg.sender] = true;       //updtaed the status of staking or not\r\n        hasstaked[msg.sender] = true;\r\n\r\n    }\r\n\r\n    function unstakeTokens() public{\r\n\r\n        uint balance = stakingBalance[msg.sender];  //fetched balance of staker into a varible\r\n\r\n        require(balance > 0, \"staking balance is zero\"); //we checked if balance is zero or not\r\n\r\n        tether_token.transfer(msg.sender, balance); //we transfered back tether token to user \r\n\r\n        stakingBalance[msg.sender] = 0; // set the staking balance to 0\r\n\r\n        isstaking[msg.sender] = false; //updated the staking status\r\n\r\n    }\r\n\r\n    function issuedummy() public{\r\n\r\n        require(msg.sender == owner, \"caller must be the owner for this function\");\r\n\r\n        for(uint i = 0; i<stakers.length ; i++){\r\n            address recipient = stakers[i];\r\n            uint balance = stakingBalance[recipient];\r\n            if(balance > 0){\r\n                dummy_token.transfer(recipient, balance);\r\n            }\r\n        }\r\n    }\r\n\r\n\r\n\r\n}",
  "sourcePath": "C:\\Users\\rushikesh\\staking_dapp\\src\\contracts\\Staking_Dapp.sol",
  "compiler": {
    "name": "solc",
    "version": "0.8.9+commit.e5eed63a.Emscripten.clang"
  },
  "schemaVersion": "3.4.3",
  "updatedAt": "2021-11-29T07:24:06.318Z",
  "devdoc": {
    "kind": "dev",
    "methods": {},
    "version": 1
  },
  "userdoc": {
    "kind": "user",
    "methods": {},
    "version": 1
  }
}